:100000000C9462000C948A000C948A000C948A0070
:100010000C948A000C948A000C948A000C948A0038
:100020000C948A000C948A000C948A000C948A0028
:100030000C948A000C948A000C948A000C948A0018
:100040000C9401030C948A000C948A000C948A008E
:100050000C948A000C948A000C948A000C948A00F8
:100060000C948A000C948A000000000023002600F3
:10007000290000000000240027002A0000000000E2
:10008000250028002B0004040404040404040202D4
:100090000202020203030303030301020408102007
:1000A0004080010204081020010204081020000012
:1000B0000008000201000003040700000000000027
:1000C0000000220411241FBECFEFD8E0DEBFCDBF59
:1000D00011E0A0E0B1E0E2E9F8E002C005900D9285
:1000E000A43CB107D9F721E0A4ECB1E001C01D9216
:1000F000A53EB207E1F710E0C2E6D0E004C02197C8
:10010000FE010E944104C136D107C9F70E944B038A
:100110000C9447040C940000833081F028F4813063
:1001200099F08230A9F008958730A9F08830C9F09D
:100130008430B1F4809180008F7D03C08091800075
:100140008F7780938000089584B58F7784BD08955C
:1001500084B58F7DFBCF8091B0008F778093B00006
:1001600008958091B0008F7DF9CF1F93CF93DF93D7
:10017000282F30E0F901E255FF4F8491F901E6564E
:10018000FF4FD491F901EA57FF4FC491CC23A9F056
:10019000162F81110E948C00EC2FF0E0EE0FFF1F54
:1001A000E458FF4FA591B4918FB7F894EC911111D9
:1001B00008C0D095DE23DC938FBFDF91CF911F91D4
:1001C0000895DE2BF8CFCF93DF9390E0FC01E65645
:1001D000FF4F24918A579F4FFC0184918823D1F0CF
:1001E00090E0880F991FFC01EE58FF4FA591B49144
:1001F000FC01E458FF4FC591D49161110EC09FB727
:10020000F8948C91E22FE0958E238C932881E22341
:10021000E8839FBFDF91CF9108958FB7F894EC9159
:10022000E22BEC938FBFF6CF3FB7F8948091C901D2
:100230009091CA01A091CB01B091CC0126B5A89BA9
:1002400005C02F3F19F00196A11DB11D3FBFBA2F68
:10025000A92F982F8827BC01CD01620F711D811D28
:10026000911D42E0660F771F881F991F4A95D1F7AD
:1002700008958F929F92AF92BF92CF92DF92EF92AA
:10028000FF920E9414014B015C0184E6C82ED12C20
:10029000E12CF12C0E941401681979098A099B0943
:1002A000683E734081059105A8F321E0C21AD10888
:1002B000E108F10888EE880E83E0981EA11CB11CAD
:1002C000C114D104E104F10429F7FF90EF90DF900D
:1002D000CF90BF90AF909F908F900895AF92BF92B4
:1002E000CF92DF92EF92FF920F931F93CF93DF9302
:1002F0006C017B018B01040F151FEB015E01AE1831
:10030000BF08C017D10759F06991D601ED91FC9152
:100310000190F081E02DC6010995892B79F7C5017F
:10032000DF91CF911F910F91FF90EF90DF90CF90D1
:10033000BF90AF900895089590E080E00895FC018B
:1003400001900020E9F73197AF01481B590BBC0120
:100350008DEC91E00C946E01CF93DF93EC0160E0A3
:100360008E810E94B50061E08E810E94B50060E040
:100370008E810E94B5008BE891E00197F1F7DF9143
:10038000CF910895CF92DF92EF92FF920F931F9338
:10039000CF93DF936C017C0187E0E80EF11CD0E085
:1003A000C0E0062F10E0B8010C2E02C075956795CD
:1003B0000A94E2F76170F70181917F010E94B50014
:1003C0002196C430D10579F7C601DF91CF911F91F5
:1003D0000F91FF90EF90DF90CF900C94AC01CF92F3
:1003E000DF92EF92FF920F931F93CF93DF93EC0175
:1003F000F62E642F8C810E94B5008D818F3F19F0FD
:1004000060E00E94B5000F2D10E08F8584FF25C0AD
:100410006E0187E0C80ED11CF12CE12CB8010E2C26
:1004200002C0759567950A94E2F76170F6018191B3
:100430006F010E94B500FFEFEF1AFF0A88E0E8168F
:10044000F10461F7CE01DF91CF911F910F91FF90E1
:10045000EF90DF90CF900C94AC01B80184E07595DB
:1004600067958A95E1F7CE010E94C2016F2DCE01FA
:10047000DF91CF911F910F91FF90EF90DF90CF9080
:100480000C94C20140E0682F8DEC91E00C94EF01D8
:10049000CF93DF93613029F09091DC0198609093C5
:1004A000DC016093E0011092E10190E49093E2019D
:1004B0008093E301805C8093E40161E08091D1014D
:1004C0000E94E3008091D2018F3F19F061E00E9409
:1004D000E30061E08091D3010E94E300CDECD1E024
:1004E0009E012D5C31408091DC0184FD0BC084E0D5
:1004F00090E021962817390744F461E08E810E942C
:10050000E300EECF88E090E0F4CF8BE39DE001972D
:10051000F1F760E08091D1010E94B50060E0809128
:10052000D3010E94B5008091D2018F3F19F060E0A5
:100530000E94B5008091DC0184FD39C063E08DEC40
:1005400091E00E94C201CBE4D6E4CE010197F1F71D
:1005500063E08DEC91E00E94C2012197F1F763E026
:100560008DEC91E00E94C20183E592E00197F1F7E2
:1005700062E08DEC91E00E94C2018091DC0180621A
:100580000E94420284E08093DD018CE00E944202DE
:1005900081E00E9442028BE39FE10197F1F782E044
:1005A0008093DE0186E0DF91CF910C94420280625D
:1005B0000E9442028BE496E40197F1F78091DC01FE
:1005C00080620E94420283E592E00197F1F78091F8
:1005D000DC0180620E944202D0CF9091E001891735
:1005E00010F08FEF890FE82FF0E0E353FE4F84897E
:1005F00080680C94420241E00E94EF0181E090E0AB
:1006000008951F920F920FB60F9211242F933F93CC
:100610008F939F93AF93BF938091C5019091C60133
:10062000A091C701B091C8013091C40123E0230F0C
:100630002D3758F50196A11DB11D2093C40180935B
:10064000C5019093C601A093C701B093C8018091E2
:10065000C9019091CA01A091CB01B091CC01019642
:10066000A11DB11D8093C9019093CA01A093CB0134
:10067000B093CC01BF91AF919F918F913F912F91FA
:100680000F900FBE0F901F90189526E8230F02962B
:10069000A11DB11DD2CF789484B5826084BD84B58C
:1006A000816084BD85B5826085BD85B5816085BD6D
:1006B00080916E00816080936E0010928100809125
:1006C00081008260809381008091810081608093AD
:1006D0008100809180008160809380008091B100D2
:1006E00084608093B1008091B00081608093B000FD
:1006F00080917A00846080937A0080917A00826091
:1007000080937A0080917A00816080937A00809152
:100710007A00806880937A001092C10060E082E0E5
:100720000E94E30061E085E00E94E30061E087E071
:100730000E94E30061E086E00E94E30064E084E15F
:100740000E94480280E00E94ED028CE091E00E944D
:100750009F0181E00E94ED028AE191E00E949F01E9
:10076000C0EBD0E00CE910E098E8E92E90E0F92E1B
:1007700020E0C22E20E0D22EFE018491F801A49048
:10078000F701B490BB2009F445C081110E948C0090
:10079000EB2DF0E0EE0FFF1FE859FF4FA591B4914C
:1007A0008C91A822B9F161E087E00E94B50061E078
:1007B00085E00E94B50060E086E00E94B50083E01D
:1007C0000E94ED028BE291E00E949F010E9439019C
:1007D00083E00E94ED0289E491E00E949F010E9463
:1007E000390183E00E94ED0288E691E00E949F01BA
:1007F0000E94390183E00E94ED0288E891E00E94A6
:100800009F010E943901C114D10409F4B5CF0E949F
:100810000000B2CF83E00E94ED024AE150E069EAB5
:1008200071E08DEC91E00E946E0160E087E00E9433
:10083000B50060E085E00E94B50061E086E00E94BE
:10084000B500E1CFEDECF1E01382128284E091E09B
:10085000918380838DE084838FEF85838CE0868312
:100860008BE087838AE0808789E0818788E08287C0
:100870001386148615861686178661E080E10C942F
:100880004802EE0FFF1F0590F491E02D0994F894B3
:02089000FFCF98
:1008920000000000FB026E019C019B014172647525
:1008A200696E6F20426173656400205241494E2097
:1008B2004445544543544F52202000202020526189
:1008C200696E20446574656374656420202020206D
:1008D2002020202020202020002020205261696E2C
:1008E2002044657465637465642E202020202020D6
:1008F20020202020202020002020205261696E200C
:1009020044657465637465642E2E202020202020A7
:1009120020202020202020002020205261696E20EB
:1009220044657465637465642E2E2E202020202079
:100932002020202020202020002020202020204EA7
:100942004F205241494E20202020202020202020CC
:040952002020200041
:00000001FF
